:100000000C94E4030C940D040C940D040C940D0456
:100010000C940D040C940D040C940D040C940D041C
:100020000C940D040C940D040C940D040C940D040C
:100030000C940D040C940D040C940D040C940D04FC
:100040000C940F040C940D040C940D040C940D04EA
:100050000C940D04500E500E500E500E500E500EBB
:10006000500E500E500E500E500E500E500E500EA0
:10007000500E500E500E500E500E500E2D14AE134A
:10008000B3124211640F250D930ABF07B9049701FB
:1000900069FE47FB41F86DF5DBF29CF0BEEE4DEDDD
:1000A00052ECD3EBFD130812500E30092A03D6FC94
:1000B000D0F6B0F1F8ED03EC03ECF8EDB0F1D0F6CA
:1000C000D6FC2A033009500E0812FD13AE13640F3C
:1000D000BF0769FE6DF5BEEED3EB4DEDDBF247FBDE
:1000E000B904250DB3122D144211930A970141F85A
:1000F0009CF052EC3F13E50B00001BF4C1ECC1EC8B
:100100001BF40000E50B3F133F13E50B00001BF44D
:10011000C1ECC1EC1BF40000E50B3F13B312BF07A9
:1001200041F84DED4DED41F8BF07B312B312BF07D3
:1001300041F84DED4DED41F8BF07B312B312BF07C3
:1001400041F84DED08122A03B0F103ECD0F6300966
:10015000FD13500ED6FCF8EDF8EDD6FC500EFD1355
:100160003009D0F603ECB0F12A030812421169FEFF
:100170004DED9CF0B904AE13250D41F8D3EB6DF5B0
:10018000930A2D14BF07DBF252EC47FB640FB31246
:100190009701BEEE6010BFF9C3EBBFF960106010AD
:1001A000BFF9C3EBBFF960106010BFF9C3EBBFF933
:1001B00060106010BFF9C3EBBFF96010640F6DF5FC
:1001C0004DEDB9042D14970152EC41F84211250D63
:1001D000DBF2BEEEBF07AE1369FED3EB47FBB312F3
:1001E000930A9CF0500EB0F1B0F1500E500EB0F1E9
:1001F000B0F1500E500EB0F1B0F1500E500EB0F103
:10020000B0F1500E500EB0F1B0F1500E250DBEEE13
:1002100041F8AE139701D3EBB904B3126DF59CF01E
:10022000640F930A4DED47FB2D1469FE52ECBF0796
:100230004211DBF2E50BC1EC00003F131BF41BF491
:100240003F130000C1ECE50BE50BC1EC00003F13D0
:100250001BF41BF43F130000C1ECE50B627F1E7E14
:100260005D7B8578B6735F6FA768EC60825A345106
:100270007B448D392728E215000007E721CC40B1E7
:1002800030997B87636C6F736500646F776E0000D5
:100290006C65667400006F66660000006F6E00009B
:1002A00000006F70656E0000726967687400737497
:1002B0006172740073746F7000007570000000004C
:1002C000542FFFFFA133FFFF542FFFFFA133FFFF88
:1002D000D744FFFF542FFFFF542FFFFFEF37FFFFDF
:1002E000542FFFFF542FFFFF0A000000FCFFFFFF09
:1002F000090000000F000000010000000D000000D8
:1003000011000000FAFFFFFFFAFFFFFFF9FFFFFFF8
:10031000F1FFFFFF0600000004000000E6FFFFFF02
:1003200010000000FCFFFFFF06000000FCFFFFFFC5
:100330000D00000000000000050000000C0000009F
:1003400005000000040000000100000001000000A2
:100350000000000011000000040000000100000087
:100360000E00000008000000FCFFFFFF010000007D
:10037000FDFFFFFF03000000070000000D0000006C
:10038000F9FFFFFF0B000000ECFFFFFF0A00000079
:100390000400000001000000000000000B0000004D
:1003A000FEFFFFFFFCFFFFFF12000000F7FFFFFF53
:1003B00001000000FFFFFFFF0A000000EEFFFFFF4B
:1003C000050000000900000002000000000000001D
:1003D000F3FFFFFFF2FFFFFF040000000600000034
:1003E00009000000FBFFFFFFFBFFFFFF060000000E
:1003F000FFFFFFFF0100000006000000F5FFFFFF08
:10040000F3FFFFFF06000000F9FFFFFF0000000000
:10041000FEFFFFFF0E000000F5FFFFFF0B000000D6
:100420000B000000F5FFFFFF07000000E8FFFFFFE3
:10043000EBFFFFFFF4FFFFFF0800000014000000C7
:1004400005000000FDFFFFFFFCFFFFFFFFFFFFFFB8
:10045000FAFFFFFFF6FFFFFFFFFFFFFF02000000B4
:10046000F8FFFFFF0E000000FDFFFFFFF9FFFFFF99
:10047000FDFFFFFFFEFFFFFFFAFFFFFFFAFFFFFF99
:10048000F7FFFFFFF6FFFFFFFCFFFFFF1600000076
:10049000F2FFFFFF11000000020000000100000059
:1004A000030000001300000002000000080000002C
:1004B000F8FFFFFFF7FFFFFF0A0000000000000049
:1004C000EAFFFFFFF3FFFFFF0F0000001C0000002A
:1004D000F9FFFFFF04000000FAFFFFFF0A00000021
:1004E000000000000F000000060000000A000000ED
:1004F000F3FFFFFF040000000700000004000000FD
:1005000009000000FAFFFFFFFFFFFFFFF8FFFFFFFA
:10051000010000000200000000000000FAFFFFFFE1
:10052000F3FFFFFFF6FFFFFFF4FFFFFF03000000F4
:10053000FDFFFFFF0B0000000B000000F2FFFFFFBC
:100540000F000000FCFFFFFFFFFFFFFF01000000A6
:10055000010000000200000009000000110000007E
:10056000F3FFFFFFF4FFFFFF0E000000F7FFFFFFA8
:10057000EFFFFFFFF5FFFFFFFEFFFFFF050000009D
:10058000F9FFFFFFFCFFFFFF0C000000060000006A
:10059000090000000C00000014000000F2FFFFFF43
:1005A0000A000000F9FFFFFF09000000FFFFFFFF46
:1005B000F8FFFFFF060000000C000000F8FFFFFF3F
:1005C000F5FFFFFFE6FFFFFFF9FFFFFFFBFFFFFF68
:1005D000FFFFFFFF06000000F4FFFFFFFAFFFFFF31
:1005E00005000000FFFFFFFF08000000F9FFFFFF0C
:1005F000060000000100000013000000F8FFFFFFEC
:10060000FBFFFFFFFBFFFFFFFAFFFFFFFFFFFFFF07
:1006100000000000FEFFFFFF00000000F6FFFFFFEC
:100620000400000004000000F8FFFFFFF5FFFFFFDB
:100630000200000000000000F8FFFFFF01000000C2
:10064000FFFFFFFFFDFFFFFFFFFFFFFFFEFFFFFFBD
:10065000030000000200000000000000060000008F
:1006600016000000FDFFFFFFF2FFFFFFF3FFFFFF9B
:10067000020000000A000000FAFFFFFFF8FFFFFF82
:10068000F8FFFFFFFAFFFFFFF7FFFFFFF7FFFFFF96
:10069000FCFFFFFF09000000FFFFFFFFFAFFFFFF65
:1006A000F4FFFFFFFEFFFFFF130000000A00000041
:1006B000FAFFFFFFF6FFFFFF080000000A0000003E
:1006C000FFFFFFFF10000000F6FFFFFF000000002B
:1006D000ECFFFFFFF9FFFFFFFAFFFFFFFDFFFFFF4A
:1006E000FCFFFFFFFFFFFFFF01000000F8FFFFFF1F
:1006F00004000000FEFFFFFFD519000025130000D5
:10070000700C0000060700005208000041050000C0
:10071000C6040000B0040000F40300002803000039
:10072000080300003A02000076020000750E000087
:10073000AD0C0000EC0300001A030000BE03000033
:10074000A70200009B0100006A0100007601000082
:100750000701000003010000CA000000CE000000F5
:100760005B56FFFFB72F00005D0900006209000023
:10077000E3FDFFFF130200009A01000011FFFFFFDD
:100780008BFDFFFFA900000025FEFFFFDE0100003A
:100790008CFFFFFFB5350000891A0000B10B000087
:1007A000F3080000C809000016070000D405000087
:1007B000A5050000DD04000034040000FA03000079
:1007C000880300005D03000011241FBECFE5D8E0C0
:1007D000DEBFCDBF84B78093640714BE0FB6F89414
:1007E000A89581B5886181BD11BC0FBE11E0A0E65E
:1007F000B0E0E4E7F1E202C005900D92AC36B1073B
:10080000D9F727E0ACE6B1E001C01D92A436B207EB
:10081000E1F70E94B40D0C94B8100C9400001F92E4
:100820001FB61F9211242F933F934F935F938F9383
:100830009F93EF93FF9380917101882309F481C006
:100840008091720181117DC095B180E897FF4EC003
:10085000890F20917001211126C08A3008F448C008
:1008600020916E0130916F012F3F3F4F51F0209149
:100870006E0130916F012F5F3F4F30936F012093D6
:100880006E0120916E0130916F012830310558F0D2
:1008900021E0209370011092740110927301109264
:1008A0006D0110926C0120917001222309F449C05E
:1008B00020917301309174012038E5E03E07D0F5B6
:1008C0002091730130917401A9014F5F5F4F5093E4
:1008D0007401409373012B583E4FF9019083873088
:1008E00060F010926D0110926C0116C0891BB1CF9F
:1008F00010926F0110926E01D6CF80916C01909191
:100900006D01019649F080916C0190916D01019605
:1009100090936D0180936C018091730190917401AB
:100920008115924070F080916C0190916D01803F33
:10093000910538F0109271011092700181E080935E
:100940007201FF91EF919F918F915F914F913F9134
:100950002F911F901FBE1F901895D0981FBC8AE042
:100960008EBD1DBC1CBC8CE790E09BBD8ABD99BDB3
:1009700088BD80E687B98FEA86B980B78F7180BF5E
:1009800080B7806A80BF369A0895F89481E080939A
:100990007101109270011092720110927401109204
:1009A000730110926F0110926E0110926D011092FE
:1009B0006C0178940895F89410927101109270016E
:1009C00078940895809172010895F89410927201BC
:1009D0007894089585E791E00895F89480917301E3
:1009E000909174017894089560EA76E881E090E04F
:1009F0000C94020DCF9380EA0E94290DC82F0E940B
:100A0000490D8C2FCF910895EF92FF920F931F9372
:100A1000CF93DF93EC017B018A01452B91F180EAB2
:100A20000E94290D81110AC00E94490D80E0DF91CA
:100A3000CF911F910F91FF90EF9008958D2F0E94FD
:100A40004F0D882389F38C2F0E944F0D882361F36B
:100A500081EA0E94290D882339F3E701F12CE12C6A
:100A60008FEFE81AF80ACE01E016F10660F40E9452
:100A70005C0D21968823C1F2E016F10689F70E94E9
:100A8000490D81E0D4CF0E946C0DF3CF2F923F929D
:100A90004F925F926F927F928F929F92AF92BF928E
:100AA000CF92DF92EF92FF920F931F93CF93DF933A
:100AB000CDB7DEB76F970FB6F894DEBF0FBECDBFD0
:100AC0008B8B9C8B6D8B7E8B49875A871901890193
:100AD0000C5C1F4F1C870B87F90111921192119228
:100AE00011922B853C852E173F07B9F74CE552E054
:100AF000588B4F8784E590E09E878D871A8A198AE4
:100B0000A985BA85B395BC8FAB8FEF85F8898591A0
:100B10009491E985FA85FE8FED8FC12CD12C760159
:100B200019821A821B821C828C01990F220B330BB3
:100B30000F8B188F298F3A8F4D895E89ED8DFE8D31
:100B4000E417F50708F067C1EB89FC890D8D1E8D50
:100B5000E00FF11FE081E058FF0B2F89388D498DA0
:100B60005A8D69817A818B819C810E947F0EDC0184
:100B7000CB011EE0B595A795979587951A95D1F766
:100B8000AF01FF0F660B770B840F951FA61FB71FD2
:100B90009C01AD012C193D094E095F092D833E834F
:100BA0004F835887ED8DFE8D3196FE8FED8FC98076
:100BB000DA80EB80FC800B8D1C8D0E171F0709F06F
:100BC00021C1CA01B9010E943B0F39014A016F8F4F
:100BD0007D8F2C01C701B6019601A7010E943B0F32
:100BE00059016A017B018C019301A4016F8D7D8DF8
:100BF000C2010E948210522E632E742E852E962ED4
:100C00007F8F8D8F492E6F89788D898D9A8D2D815B
:100C10003E814F8158850E943B0FE980FA800B810D
:100C20001C81110FEE08FE2C8701ED82FE820F83DE
:100C30001887A980BA80CB80DC80ED80FE2C0E2D39
:100C40001E2D0E94E30E0EE00E94651059016A01FC
:100C50007B018C01252D362D472D582D692D7F8D3B
:100C60008D8D942D0E948B102983B32FF42FE52FA7
:100C7000A0E00E949D1009F00CF4D0C02F3F0FEFB0
:100C8000300740075007610571058105910511F096
:100C90000CF0C9C0CF01422F5B2F692F7E2FDB01E3
:100CA000CA0120E081309105A105B10509F0BFC05E
:100CB000822F90E02F3008F4C0C00F9704C07695C3
:100CC0006795579547958A95D2F72A013B014114BC
:100CD0005104B1E06B06710428F044244A94542C6A
:100CE000612C712C4114E0E85E066104710428F463
:100CF000412C70E8572E612C712CF0E85F1A6108C6
:100D0000710837E076946794579447943A95D1F7F1
:100D100030E050E040E0542F432F322F2227420E84
:100D2000531E641E751E3E822D828D849E84F401A6
:100D3000A591B491ED81FE81C190D190E190F190A7
:100D4000FE83ED833497A30192010E94DB0E698339
:100D50007A838B839C83C60ED71EE81EF91EC08241
:100D6000D182E282F382F8E28F0E911CEB84FC8444
:100D70000D811E81E016F106D1F629893A892F5F8F
:100D80003F4F3A8B298B4F8558894E5F5F4F588B69
:100D90004F878D859E8502969E878D8724313105EC
:100DA00009F0B3CEF10181919191A191B1911F010F
:100DB00034972EE0B595A795979587952A95D1F705
:100DC00080839183A283B383EB84FC84E214F304D5
:100DD00049F76F960FB6F894DEBF0FBECDBFDF9117
:100DE000CF911F910F91FF90EF90DF90CF90BF9028
:100DF000AF909F908F907F906F905F904F903F90BB
:100E00002F9008952D813E814F81588529833A8303
:100E10004B835C8391CEF0E0E0E09FCE41E050E078
:100E200060E070E03CCF4FEF5FEFBA0138CFB6958E
:100E3000A795979587952F5F35CFAFE0B0E0A81BBA
:100E4000B90B04C0440F551F661F771FAA95D2F730
:100E50003CCF2F923F924F925F926F927F928F92F0
:100E60009F92AF92BF92CF92DF92EF92FF920F9339
:100E70001F93CF93DF93CDB7DEB7CE55D1090FB611
:100E8000F894DEBF0FBECDBF2C013B014A019A0191
:100E900028593F4F60963FAF2EAF6097FA011192ED
:100EA00011921192119260964EAD5FAD6097E4176A
:100EB000F507A9F74114510409F4C4C16114710480
:100EC00009F4C0C101E010E051E06516750688F034
:100ED000C301B0E0A0E081589109A109B10977E010
:100EE000B695A795979587957A95D1F78C010F5F61
:100EF0001F4FF12CE12C23961FAE1EAE2397B40199
:100F00006C5C7F4F7EAF6DAF9E012F5F3F4FA7019F
:100F1000B301C2010E9446059E012F5F3F4FF401BD
:100F20004191519161917191D901AD90BD90CD9058
:100F3000DD909D01CF0104974A0D5B1D6C1D7D1D49
:100F4000DC014D935D936D937C9313974DAD5EAD36
:100F5000E417F50729F723962EAC3FAC23975FEFF4
:100F6000251A350A60E8E60EF11C0215130509F092
:100F700083C184015101D12CC12CF801819191913F
:100F8000A191B1918F018DAB9EABAFABB8AF7F019B
:100F9000F4E0EF1AF108BC01CD01A60195010E9411
:100FA000B10ED7012D933D934D935C931397EDAD07
:100FB000FEADE017F10709F721961FAE1EAE21978F
:100FC00025961FAE1EAE25979E012F5F3F4F21969F
:100FD0004EAD5FAD2197B301C2010E9446059EAAA6
:100FE0008DAA9E012F5F3F4F27963FAF2EAF2797C9
:100FF0002796EEADFFAD279781919191A191B19187
:101000002796FFAFEEAF2797EDA9FEA9E190F190EB
:1010100001911191FEABEDAB5C016D01DD0CAA08F5
:10102000BA2C6501A8019701550F220B322FA90197
:1010300029AF3AAF4BAF5CAF9C01AD016A2D7A2D61
:101040008A2D9A2D57016801E9ACFE2C0E2D1E2D1C
:101050000E948B1059016A017B018C010E94E30EF2
:1010600004E00E94651059016A01EDA9FEA980A95A
:1010700091A9A2A9B3A98A0D9B1DAC1DBD1D80AB72
:1010800091ABA2ABB3AB2DAD3EAD2E173F0709F030
:10109000AFCF25968EAD9FAD2597019621964EAD8B
:1010A0005FAD219740585F4F21965FAF4EAF2197BC
:1010B00023966EAD7FAD23972596AEADBFAD259738
:1010C0006A177B0709F0DDC0F401F4962596FFAF9F
:1010D000EEAF2597910150E040E060E070E0CB0179
:1010E00061962FAE619762963FAF629763964FAF5E
:1010F000639764965FAF649765966FAF65976696E2
:101100007FAF669767968FAF679768969FAF689730
:101110002596AEADBFAD25978D909D90AD90BD90BD
:101120002596BFAFAEAF25979401A50160E070E0B2
:1011300080E090E004E00E944C106196AFAC6197B3
:101140006296BFAC6297C12CD12CE12CF12C00E04F
:1011500010E00E94A80F29AF3DAF4FAF552E3B01C5
:10116000882EA92F26962FAF269728963FAF28972F
:1011700029964FAF29972A965FAF2A972B966FAF84
:101180002B972C967FAE2C972D968FAF2D972E9662
:101190009FAF2E971DAA212C312C912C412CB0E011
:1011A000F0E0E0E42DA9322D432D592D642D7B2F45
:1011B0008F2F9E2F02E00E9467102DAB232E342E1E
:1011C000952E462EB72FF82FE92F29AD3DAD4FAD07
:1011D000552DB301882D9A2FADA8B22CC32CD92C34
:1011E000E42CFB2E0F2F1E2F0E949410D8F2512CAE
:1011F000612C712C812C19AE1DAE1FAE22961FAE34
:1012000022972DA9322D432D592D642D7B2F8F2F01
:101210009E2FA0E00E949D10C9F52596EEADFFAD72
:101220002597349750826182728283822596EEAD33
:10123000FFAD259760962EAD3FAD6097E217F3079F
:1012400009F066CFC25ADF4F0FB6F894DEBF0FBE6B
:10125000CDBFDF91CF911F910F91FF90EF90DF9065
:10126000CF90BF90AF909F908F907F906F905F9046
:101270004F903F902F90089523963FAE2EAE239728
:1012800043CE25969FAF8EAF25979ECE252D362D2A
:10129000472D582D69AD7DAD8FAD22969FAD22971C
:1012A000ADA8B22CC32CD92CE42CFB2E0F2F1E2F53
:1012B0000E94821069962FAF69976A963FAF6A972E
:1012C0006B964FAF6B976C965FAF6C976D966FAFE9
:1012D0006D976E967FAF6E976F968FAF6F97A92FB2
:1012E000252D362D472D582D69AD7DAD8FAD22961C
:1012F0009FAD229701E00E946710522E632E742E3C
:10130000852E69AF7DAF8FAF22969FAF22976996EA
:101310002FAD69976A963FAD6A976B964FAD6B9705
:101320006C965FAD6C976D966FAD6D976E967FAD59
:101330006E976F968FAD6F979A2F2696AFAC2697C4
:101340002896BFAC28972996CFAC29972A96DFAC70
:101350002A972B96EFAC2B972C96FFAC2C972D96BB
:101360000FAD2D972E961FAD2E970E94941011F061
:1013700008F052C09501A601B701C8016996AFAC4B
:1013800069976A96BFAC6A976B96CFAC6B976C9671
:10139000DFAC6C976D96EFAC6D976E96FFAC6E9769
:1013A0006F960FAD6F971A2F0E948B1026962FAF56
:1013B000269728963FAF289729964FAF29972A96C8
:1013C0005FAF2A972B966FAF2B972C967FAF2C97FA
:1013D0002D968FAF2D972E969FAF2E972DA9322D3C
:1013E000432D592D642D7B2F8F2F9E2FA52CB62C8E
:1013F000C72CD82CE9ACFDAC0FAD22961FAD2297BF
:101400000E948210522E632E742E852E69AF7DAFFE
:101410008FAF22969FAF22972DA9322D432D592DA4
:10142000642D7B2F8F2F9E2F02E00E9467102DAB23
:10143000232E342E952E462EB72FF82FE92FE1CEEE
:1014400092B39F7092BB92B38295807F892B82BBAF
:10145000C19A82E08A95F1F700C0C19885ED8A951E
:10146000F1F700000895CF93C82FC09882958F7030
:101470000E94200A8C2F0E94200A8FE99FE001978A
:10148000F1F700C00000CF91089581E00E94330A77
:101490008FE99FE00197F1F700C000000895B89A26
:1014A000B99A81B3806F81BBC098C19882B38F70A5
:1014B00082BB2FEF89EF90E0215080409040E1F710
:1014C00000C00000C09883E00E94200A8FE097E2ED
:1014D0000197F1F700C0000083E00E94200A8BE230
:1014E00091E00197F1F700C0000083E00E94200A1C
:1014F00082E00E94200A88E20E94330A8CE00E9467
:10150000330A86E00E94330A0C94450A811180E474
:10151000860F80680C94330A1F93CF93DF93EC01FE
:101520001991111104C0DF91CF911F910895C09AB4
:10153000812F82958F700E94200A812F0E94200A9D
:10154000EFCF0F931F93CF93DF9300D000D0CDB791
:10155000DEB78B0144E050E0BE016F5F7F4F8096A5
:101560000E940405882351F089819A81AB81BC8156
:10157000F80180839183A283B38381E00F900F9061
:101580000F900F90DF91CF911F910F9108951092BE
:10159000630708958091630708952F923F924F92B9
:1015A0005F926F927F928F929F92AF92BF92CF92F3
:1015B000DF92EF92FF920F931F93CF93DF93CDB7FC
:1015C000DEB7A4970FB6F894DEBF0FBECDBF8BA3D6
:1015D0009CA3498B5A8B6B8B7C8B2C8F3D8F188AED
:1015E0001F8619A218A20FEF0AA320E030E040E006
:1015F00050E829873A874B875C8740E050E060E0FD
:1016000070E84D835E836F837887198E80916307BE
:10161000811104C1EF85F889E054FD4F85919591C2
:10162000A591B491582E692E7A2E8B2EBB0F880B64
:10163000982FDC018E8F8F8F482E982E5BA15A8FAA
:101640006CA16B8F88A199A19E878D87312C212C4D
:10165000AA8DBB8DED90FD900D911D91BB8FAA8F32
:10166000ED8AFE8A0F8B188F809163078111EDC080
:10167000F101E05AF84FC590D590E590F490F10152
:10168000E850F94F25913591459154912115310537
:101690004105510521F421E030E040E050E08D8922
:1016A0009E89AF89B88D8C199D09AE09BF09EE24BA
:1016B000F82E092F1A2FC801B7010E94B10E2D8BE9
:1016C0003E8B4F8B588F809163078111F3C0ED855E
:1016D000FE85E851FD4F85919591A591B4919C01AE
:1016E000AD016D897E898F89988D0E943B0FA52C55
:1016F000B62CC72CD82CEE8CFF8C042D192D0E94F3
:101700008210522E632E742E852E6E8F7F8F482E60
:10171000992E0D851E850C5F1F4F1E870D8714E0C7
:10172000210E311C28E62216310409F091CF2D81BB
:101730003E814F815885CD80DE80EF80F884FF0C9C
:10174000CC08DC2C76016C2D7C2D8C2D9C2DA52CB1
:10175000B62CC72CD82CEE8CFF8C042D192D0E9492
:1017600094100CF0BEC0498D4AA3ED80FE800F811D
:101770001885E986FA860B871C875D826E827F82D8
:101780008886098D0F5F098F28A139A128593F4FFD
:1017900039A328A34F8558894C5F5F4F588B4F87DB
:1017A0000A3009F033CF8D819E81AF81B885E984FD
:1017B000FA840B851C858E199F09A00BB10B0C8D2B
:1017C0001D8D0115110529F0F80180839183A283F5
:1017D000B383E988FA880B891C898E159F05A007B9
:1017E000B10714F40FEF0AA38AA1A4960FB6F894D8
:1017F000DEBF0FBECDBFDF91CF911F910F91FF9044
:10180000EF90DF90CF90BF90AF909F908F907F90A0
:101810006F905F904F903F902F90089519821A8299
:101820001B821C82BE016F5F7F4F8F85988980521B
:101830009B4F0E94A10A811103C010926307EACE58
:1018400089819A81AB81BC81EDCE19821A821B827B
:101850001C82BE016F5F7F4FC1010E94A10A8111EE
:101860001FC010926307F101E05AF84FC590D59060
:10187000E590F49080916307882309F400CF1982E2
:101880001A821B821C82BE016F5F7F4FC101885983
:101890009F4F0E94A10A811108C010926307EFCEEA
:1018A000C980DA80EB80FC80E5CF29813A814B81C9
:1018B0005C81ECCE19821A821B821C82BE016F5F92
:1018C0007F4F8D859E8580539F4F0E94A10A811175
:1018D00003C010926307FBCE29813A814B815C8162
:1018E00000CF29853A854B855C85C984DA84EB84F1
:1018F000FC84FF0CCC08DC2C76016C2D7C2D8C2D0F
:101900009C2DC72CD82CEE8CFF8C0E9494100CF0D0
:1019100038CF59866A867B868C8633CF8F929F928A
:10192000AF92BF92CF92DF92EF92FF920F931F93ED
:10193000CF93DF930F92CDB7DEB7F82E6B01E42E75
:101940006115710569F0442359F089E08F15B0F4F1
:101950008FE3FB018083F1E0F41710F4FB011182A7
:101960000F90DF91CF911F910F91FF90EF90DF903B
:10197000CF90BF90AF909F908F9008958091630714
:10198000F6E0FF9E8001112499249A94940E8823F6
:10199000D9F0085D1A4F862E5B018A2D88198915AA
:1019A000E0F4198241E050E0BE016F5F7F4FC80153
:1019B0000E94040581111DC0109263074E2DB601CF
:1019C0008F2D0E948E0CCCCFF801EC57FD4F962F37
:1019D000DB018A2F891B891530F0F601EE0DF11D10
:1019E00031971082BDCF84918D9331968111F1CFC3
:1019F000B7CF8981F50181935F010F5F1F4F81117F
:101A0000CCCFAECFCF93DF9300D000D0CDB7DEB731
:101A100069837A838B839C8311B860E072E18AE7E3
:101A200090E029813A814B815C810E948F0E205188
:101A3000310941095109569547953795279520B9A0
:101A400084E086BF0F900F900F900F90DF91CF91A1
:101A5000089594EA96BF06B607FEFDCF91B1987F30
:101A6000983021F091B1987F903179F483B984E86E
:101A700086BF06B607FEFDCF81B1887F883139F079
:101A800091B1987F81E0903419F080E0089581E071
:101A9000089584E986BF06B604FCFDCF089583B996
:101AA00084E886BF06B607FEFDCF91B1987F81E03E
:101AB000983209F080E00895FC0184EC86BF06B6F8
:101AC00007FEFDCF81B1887F803521F483B180830B
:101AD00081E0089580E00895FC0184E886BF06B6A1
:101AE00007FEFDCF81B1887F883521F483B18083E3
:101AF00081E0089580E00895CF93DF9300D000D077
:101B0000CDB7DEB79B01AC0184E0220F331F441F29
:101B1000551F8A95D1F760E072E18AE790E00E9454
:101B20008F0E2150310930BD29B988E18AB986E884
:101B300080BD0F900F900F900F90DF91CF9108957F
:101B40005D9BFECF8CB908955F9BFECF8CB108954D
:101B5000CF93DF93EC018991811103C0DF91CF9185
:101B600008950E94A00DF7CF00D000D0CDB7DEB70A
:101B700060E875E280E090E00E947C0D80E690E0F5
:101B80000E94A80D1091640780E790E00E94A80DC4
:101B90008DE790E01123B1F010FF04C083E890E0DE
:101BA0000E94A80D11FF04C088E890E00E94A80DD3
:101BB00012FF04C08DE890E00E94A80D13FF04C03E
:101BC00082E990E00E94A80D8DE690E00E94A80DA9
:101BD0000E944F0A0E94C70A0E94AD0478940E9496
:101BE000450A87E990E00E948C0A60E081E00E944B
:101BF000860A0E94CA0A882309F45DC084EA90E03C
:101C00000E948C0A81EB90E00E94A80D8CE091E08C
:101C10000E94A80D2FEF85EA9EE021508040904061
:101C2000E1F700C000000E94450A84E291E00E94B2
:101C30008C0A0E94C5040E94E2048823E1F30E94FA
:101C4000EA048C010E94ED047C010E94E5044BEF44
:101C500056E0B701C8010E94290719821A821B8227
:101C60001C829E012F5F3F4F43E353E360E070E02F
:101C70008BEF96E00E94CD0A182F0E94450A17FFAD
:101C800021C081E391E00E948C0A60E081E00E9423
:101C9000860A89E391E00E948C0A83E491E00E9425
:101CA000A80D2FEF82E597E0215080409040E1F7AA
:101CB00000C00000BECF88ED90E00E948C0A84EE48
:101CC00090E0A2CF46E065EF76E0812F0E948E0C77
:101CD00089E591E00E948C0A60E081E00E94860A1A
:101CE00085EF96E00E948C0A8FE591E00E94A80D96
:101CF00085EF96E00E94A80D8DE690E0D0CFDB0145
:101D00008F939F930E94D00EBF91AF91A29F800DA1
:101D1000911DA39F900DB29F900D11240895A1E2F3
:101D20001A2EAA1BBB1BFD010DC0AA1FBB1FEE1F55
:101D3000FF1FA217B307E407F50720F0A21BB30BA0
:101D4000E40BF50B661F771F881F991F1A9469F71C
:101D500060957095809590959B01AC01BD01CF0178
:101D60000895052E97FB1EF400940E94C80E57FD9F
:101D700007D00E948F0E07FC03D04EF40C94C80EBF
:101D800050954095309521953F4F4F4F5F4F0895A7
:101D900090958095709561957F4F8F4F9F4F0895D7
:101DA0000E94A910A59F900DB49F900DA49F800D37
:101DB000911D11240895B7FF0C94D00E0E94D00EEF
:101DC000821B930B0895DF93CF931F930F939A9DDC
:101DD000F02D219FF00D8B9DF00D8A9DE02DF10DD2
:101DE000039FF00D029FE00DF11D4E9DE00DF11DD2
:101DF0005E9DF00D4F9DF00D7F936F93BF92AF925C
:101E00005F934F93D5010E94A9108B01AC01D701BC
:101E10000E94A910EB01E80FF91FD6010E94320FB2
:101E20002F913F91D6010E94A910C60FD71FE81F1E
:101E3000F91FAF91BF910E94320F2F913F910E94E5
:101E4000A910C60FD71FE81FF91FD6010E94A910BD
:101E5000E60FF71F9801BE01CF010F911F91CF919F
:101E6000DF9108950E94A910460F571FC81FD91F60
:101E700008F43196089597FB57FF0C944B0F9F93EE
:101E80008F930E944B0F6E1B7F0BAF91BF918A0BFC
:101E90009B0B0895E894DF93CF93FC01DB010E9434
:101EA000A9107F936F93E9019A01AC01BF93AF939F
:101EB0003F932F93DF010E94A91026F46C1B7D0B2A
:101EC000820B930B9E01EB01FC010E94320FAF913C
:101ED000BF912F913F910E94320FBE01CF01F901B6
:101EE0002F913F91CF91DF910895689401C0E894BC
:101EF000F92FF12B12F00C94A90FA0E0B0E0E3E869
:101F0000FFE00C941B10092E059422F40E9405108A
:101F1000112392F4F0E80F26FFEFE094F09400957F
:101F20001095B094C094D094A194BF0ACF0ADF0A50
:101F3000EF0AFF0A0F0B1F0B0E94B40F07FC0E9451
:101F40000510CDB7DEB7ECE00C943710689401C0F3
:101F5000E8948F929F92CF93DF930E94B40FDF910A
:101F6000CF919F908F90089588249924F401E401E3
:101F7000B0E49F93AA279A158B049C04ED05FE05F7
:101F8000CF05D007A10798F4AD2FDC2FCF2FFE2F60
:101F9000E92D982C892E982F872F762F652F542F77
:101FA000432F322F2227B85031F7BF9127C01B2E65
:101FB000BF91BB27220F331F441F551F661F771F7A
:101FC000881F991F881C991CEE1FFF1FCC1FDD1F47
:101FD000AA1FBB1F8A149B04EC05FD05CE05DF0577
:101FE000A007B10748F08A189B08EC09FD09CE0943
:101FF000DF09A00BB10B21601A94E1F62EF49401D5
:10200000AF01BE01CD01000C0895609570958095DB
:10201000909530954095509521953F4F4F4F5F4F8C
:102020006F4F7F4F8F4F9F4F08952F923F924F9248
:102030005F926F927F928F929F92AF92BF92CF9258
:10204000DF92EF92FF920F931F93CF93DF93CDB761
:10205000DEB7CA1BDB0B0FB6F894DEBF0FBECDBFD9
:1020600009942A88398848885F846E847D848C84AA
:102070009B84AA84B984C884DF80EE80FD800C81B3
:102080001B81AA81B981CE0FD11D0FB6F894DEBF96
:102090000FBECDBFED010895002E083090F0982FAF
:1020A000872F762F652F542F432F322F222708504A
:1020B000F4CF220F331F441F551F661F771F881F41
:1020C000991F0A95B2F7002D089597FD1094002EE0
:1020D000083098F00850232F342F452F562F672FA4
:1020E000782F892F912DF4CF159497958795779513
:1020F000679557954795379527950A95AAF711241F
:10210000002D08952A0D3B1D4C1D5D1D6E1D7F1D6C
:10211000801F911F08952A193B094C095D096E091A
:102120007F09800B910B08952A153B054C055D0531
:102130006E057F058007910708950024A7FD009490
:102140002A1730054005500560057005800590058B
:102150000895A29FB001B39FC001A39F700D811D80
:102160001124911DB29F700D811D1124911D0895A0
:04217000F894FFCF11
:10217400426F6F743A2055415254204F4B0D0A0060
:1021840052657365742063617573653A00206E6FE0
:102194006E650020504F5200204558540020424F95
:1021A400520020574454005370656563682052659B
:1021B400616479004D6F64656C3A32344335313271
:1021C400004D6F64656C20736F757263653A2032DD
:1021D40034433531322065787465726E616C204504
:1021E4004550524F4D0D0A004D6F64656C3A466C74
:1021F400617368004D6F64656C20736F75726365FD
:102204003A20696E7465726E616C20666C617368E5
:102214002066616C6C6261636B0D0A0053706565C6
:102224006368206669726D776172652072656164A6
:10223400790D0A004C697374656E696E672E2E2ED3
:1022440000556E6B6E6F776E005472792061676112
:10225400696E0050726564696374696F6E3A2075C3
:102264006E6B6E6F776E0D0A00576F72643A005092
:0C227400726564696374696F6E3A200043
:00000001FF
